{
  "_format": "hh-sol-artifact-1",
  "contractName": "ERC20ForSpl",
  "sourceName": "contracts/erc20_for_spl.sol",
  "abi": [
    {
      "inputs": [
        {
          "internalType": "string",
          "name": "_name",
          "type": "string"
        },
        {
          "internalType": "string",
          "name": "_symbol",
          "type": "string"
        },
        {
          "internalType": "bytes32",
          "name": "_tokenMint",
          "type": "bytes32"
        }
      ],
      "stateMutability": "nonpayable",
      "type": "constructor"
    },
    {
      "anonymous": false,
      "inputs": [
        {
          "indexed": true,
          "internalType": "address",
          "name": "owner",
          "type": "address"
        },
        {
          "indexed": true,
          "internalType": "address",
          "name": "spender",
          "type": "address"
        },
        {
          "indexed": false,
          "internalType": "uint256",
          "name": "amount",
          "type": "uint256"
        }
      ],
      "name": "Approval",
      "type": "event"
    },
    {
      "anonymous": false,
      "inputs": [
        {
          "indexed": true,
          "internalType": "address",
          "name": "owner",
          "type": "address"
        },
        {
          "indexed": true,
          "internalType": "bytes32",
          "name": "spender",
          "type": "bytes32"
        },
        {
          "indexed": false,
          "internalType": "uint64",
          "name": "amount",
          "type": "uint64"
        }
      ],
      "name": "ApprovalSolana",
      "type": "event"
    },
    {
      "anonymous": false,
      "inputs": [
        {
          "indexed": true,
          "internalType": "address",
          "name": "from",
          "type": "address"
        },
        {
          "indexed": true,
          "internalType": "address",
          "name": "to",
          "type": "address"
        },
        {
          "indexed": false,
          "internalType": "uint256",
          "name": "amount",
          "type": "uint256"
        }
      ],
      "name": "Transfer",
      "type": "event"
    },
    {
      "anonymous": false,
      "inputs": [
        {
          "indexed": true,
          "internalType": "address",
          "name": "from",
          "type": "address"
        },
        {
          "indexed": true,
          "internalType": "bytes32",
          "name": "to",
          "type": "bytes32"
        },
        {
          "indexed": false,
          "internalType": "uint64",
          "name": "amount",
          "type": "uint64"
        }
      ],
      "name": "TransferSolana",
      "type": "event"
    },
    {
      "inputs": [
        {
          "internalType": "address",
          "name": "owner",
          "type": "address"
        },
        {
          "internalType": "address",
          "name": "spender",
          "type": "address"
        }
      ],
      "name": "allowance",
      "outputs": [
        {
          "internalType": "uint256",
          "name": "",
          "type": "uint256"
        }
      ],
      "stateMutability": "view",
      "type": "function"
    },
    {
      "inputs": [
        {
          "internalType": "address",
          "name": "spender",
          "type": "address"
        },
        {
          "internalType": "uint256",
          "name": "amount",
          "type": "uint256"
        }
      ],
      "name": "approve",
      "outputs": [
        {
          "internalType": "bool",
          "name": "",
          "type": "bool"
        }
      ],
      "stateMutability": "nonpayable",
      "type": "function"
    },
    {
      "inputs": [
        {
          "internalType": "bytes32",
          "name": "spender",
          "type": "bytes32"
        },
        {
          "internalType": "uint64",
          "name": "amount",
          "type": "uint64"
        }
      ],
      "name": "approveSolana",
      "outputs": [
        {
          "internalType": "bool",
          "name": "",
          "type": "bool"
        }
      ],
      "stateMutability": "nonpayable",
      "type": "function"
    },
    {
      "inputs": [
        {
          "internalType": "address",
          "name": "who",
          "type": "address"
        }
      ],
      "name": "balanceOf",
      "outputs": [
        {
          "internalType": "uint256",
          "name": "",
          "type": "uint256"
        }
      ],
      "stateMutability": "view",
      "type": "function"
    },
    {
      "inputs": [
        {
          "internalType": "uint256",
          "name": "amount",
          "type": "uint256"
        }
      ],
      "name": "burn",
      "outputs": [
        {
          "internalType": "bool",
          "name": "",
          "type": "bool"
        }
      ],
      "stateMutability": "nonpayable",
      "type": "function"
    },
    {
      "inputs": [
        {
          "internalType": "address",
          "name": "from",
          "type": "address"
        },
        {
          "internalType": "uint256",
          "name": "amount",
          "type": "uint256"
        }
      ],
      "name": "burnFrom",
      "outputs": [
        {
          "internalType": "bool",
          "name": "",
          "type": "bool"
        }
      ],
      "stateMutability": "nonpayable",
      "type": "function"
    },
    {
      "inputs": [
        {
          "internalType": "bytes32",
          "name": "from",
          "type": "bytes32"
        },
        {
          "internalType": "uint64",
          "name": "amount",
          "type": "uint64"
        }
      ],
      "name": "claim",
      "outputs": [
        {
          "internalType": "bool",
          "name": "",
          "type": "bool"
        }
      ],
      "stateMutability": "nonpayable",
      "type": "function"
    },
    {
      "inputs": [],
      "name": "decimals",
      "outputs": [
        {
          "internalType": "uint8",
          "name": "",
          "type": "uint8"
        }
      ],
      "stateMutability": "view",
      "type": "function"
    },
    {
      "inputs": [],
      "name": "name",
      "outputs": [
        {
          "internalType": "string",
          "name": "",
          "type": "string"
        }
      ],
      "stateMutability": "view",
      "type": "function"
    },
    {
      "inputs": [],
      "name": "symbol",
      "outputs": [
        {
          "internalType": "string",
          "name": "",
          "type": "string"
        }
      ],
      "stateMutability": "view",
      "type": "function"
    },
    {
      "inputs": [],
      "name": "tokenMint",
      "outputs": [
        {
          "internalType": "bytes32",
          "name": "",
          "type": "bytes32"
        }
      ],
      "stateMutability": "view",
      "type": "function"
    },
    {
      "inputs": [],
      "name": "totalSupply",
      "outputs": [
        {
          "internalType": "uint256",
          "name": "",
          "type": "uint256"
        }
      ],
      "stateMutability": "view",
      "type": "function"
    },
    {
      "inputs": [
        {
          "internalType": "address",
          "name": "to",
          "type": "address"
        },
        {
          "internalType": "uint256",
          "name": "amount",
          "type": "uint256"
        }
      ],
      "name": "transfer",
      "outputs": [
        {
          "internalType": "bool",
          "name": "",
          "type": "bool"
        }
      ],
      "stateMutability": "nonpayable",
      "type": "function"
    },
    {
      "inputs": [
        {
          "internalType": "address",
          "name": "from",
          "type": "address"
        },
        {
          "internalType": "address",
          "name": "to",
          "type": "address"
        },
        {
          "internalType": "uint256",
          "name": "amount",
          "type": "uint256"
        }
      ],
      "name": "transferFrom",
      "outputs": [
        {
          "internalType": "bool",
          "name": "",
          "type": "bool"
        }
      ],
      "stateMutability": "nonpayable",
      "type": "function"
    },
    {
      "inputs": [
        {
          "internalType": "bytes32",
          "name": "to",
          "type": "bytes32"
        },
        {
          "internalType": "uint64",
          "name": "amount",
          "type": "uint64"
        }
      ],
      "name": "transferSolana",
      "outputs": [
        {
          "internalType": "bool",
          "name": "",
          "type": "bool"
        }
      ],
      "stateMutability": "nonpayable",
      "type": "function"
    }
  ],
  "bytecode": "0x60a06040523480156200001157600080fd5b5060405162002f5d38038062002f5d833981810160405281019062000037919062000376565b73ff0000000000000000000000000000000000000473ffffffffffffffffffffffffffffffffffffffff1663a2ce9c1f826040518263ffffffff1660e01b815260040162000086919062000462565b60a06040518083038186803b1580156200009f57600080fd5b505afa158015620000b4573d6000803e3d6000fd5b505050506040513d601f19601f82011682018060405250810190620000da9190620003fe565b6040015162000120576040517f08c379a000000000000000000000000000000000000000000000000000000000815260040162000117906200047f565b60405180910390fd5b82600090805190602001906200013892919062000163565b5081600190805190602001906200015192919062000163565b508060808181525050505050620006ea565b82805462000171906200057e565b90600052602060002090601f016020900481019282620001955760008555620001e1565b82601f10620001b057805160ff1916838001178555620001e1565b82800160010185558215620001e1579182015b82811115620001e0578251825591602001919060010190620001c3565b5b509050620001f09190620001f4565b5090565b5b808211156200020f576000816000905550600101620001f5565b5090565b60006200022a6200022484620004ca565b620004a1565b9050828152602081018484840111156200024357600080fd5b6200025084828562000548565b509392505050565b600081519050620002698162000682565b92915050565b60008151905062000280816200069c565b92915050565b600082601f8301126200029857600080fd5b8151620002aa84826020860162000213565b91505092915050565b600060a08284031215620002c657600080fd5b620002d260a0620004a1565b90506000620002e48482850162000348565b6000830152506020620002fa848285016200035f565b6020830152506040620003108482850162000258565b604083015250606062000326848285016200026f565b60608301525060806200033c848285016200026f565b60808301525092915050565b6000815190506200035981620006b6565b92915050565b6000815190506200037081620006d0565b92915050565b6000806000606084860312156200038c57600080fd5b600084015167ffffffffffffffff811115620003a757600080fd5b620003b58682870162000286565b935050602084015167ffffffffffffffff811115620003d357600080fd5b620003e18682870162000286565b9250506040620003f4868287016200026f565b9150509250925092565b600060a082840312156200041157600080fd5b60006200042184828501620002b3565b91505092915050565b62000435816200051d565b82525050565b60006200044a60198362000500565b9150620004578262000659565b602082019050919050565b60006020820190506200047960008301846200042a565b92915050565b600060208201905081810360008301526200049a816200043b565b9050919050565b6000620004ad620004c0565b9050620004bb8282620005b4565b919050565b6000604051905090565b600067ffffffffffffffff821115620004e857620004e762000619565b5b620004f38262000648565b9050602081019050919050565b600082825260208201905092915050565b60008115159050919050565b6000819050919050565b600067ffffffffffffffff82169050919050565b600060ff82169050919050565b60005b83811015620005685780820151818401526020810190506200054b565b8381111562000578576000848401525b50505050565b600060028204905060018216806200059757607f821691505b60208210811415620005ae57620005ad620005ea565b5b50919050565b620005bf8262000648565b810181811067ffffffffffffffff82111715620005e157620005e062000619565b5b80604052505050565b7f4e487b7100000000000000000000000000000000000000000000000000000000600052602260045260246000fd5b7f4e487b7100000000000000000000000000000000000000000000000000000000600052604160045260246000fd5b6000601f19601f8301169050919050565b7f45524332303a20696e76616c696420746f6b656e206d696e7400000000000000600082015250565b6200068d8162000511565b81146200069957600080fd5b50565b620006a7816200051d565b8114620006b357600080fd5b50565b620006c18162000527565b8114620006cd57600080fd5b50565b620006db816200053b565b8114620006e757600080fd5b50565b60805161283b620007226000396000818161044e01528181610548015281816106e001528181610cb40152611424015261283b6000f3fe608060405234801561001057600080fd5b50600436106100f55760003560e01c806370a0823111610097578063a9059cbb11610066578063a9059cbb146102c2578063af25c077146102f2578063af554c5b14610310578063dd62ed3e14610340576100f5565b806370a082311461021457806379cc67901461024457806393e293461461027457806395d89b41146102a4576100f5565b806323b872dd116100d357806323b872dd14610166578063313ce5671461019657806342966c68146101b45780635ca3e1e9146101e4576100f5565b806306fdde03146100fa578063095ea7b31461011857806318160ddd14610148575b600080fd5b610102610370565b60405161010f9190612020565b60405180910390f35b610132600480360381019061012d9190611bc0565b6103fe565b60405161013f9190611f61565b60405180910390f35b61015061041a565b60405161015d91906121a2565b60405180910390f35b610180600480360381019061017b9190611b71565b6104ec565b60405161018d9190611f61565b60405180910390f35b61019e610514565b6040516101ab91906121f3565b60405180910390f35b6101ce60048036038101906101c99190611cdc565b6105dc565b6040516101db9190611f61565b60405180910390f35b6101fe60048036038101906101f99190611c4e565b6105f6565b60405161020b9190611f61565b60405180910390f35b61022e60048036038101906102299190611b0c565b610932565b60405161023b91906121a2565b60405180910390f35b61025e60048036038101906102599190611bc0565b6109f3565b60405161026b9190611f61565b60405180910390f35b61028e60048036038101906102899190611c4e565b610a19565b60405161029b9190611f61565b60405180910390f35b6102ac610c08565b6040516102b99190612020565b60405180910390f35b6102dc60048036038101906102d79190611bc0565b610c96565b6040516102e99190611f61565b60405180910390f35b6102fa610cb2565b6040516103079190611f7c565b60405180910390f35b61032a60048036038101906103259190611c4e565b610cd6565b6040516103379190611f61565b60405180910390f35b61035a60048036038101906103559190611b35565b610e2d565b60405161036791906121a2565b60405180910390f35b6000805461037d90612351565b80601f01602080910402602001604051908101604052809291908181526020018280546103a990612351565b80156103f65780601f106103cb576101008083540402835291602001916103f6565b820191906000526020600020905b8154815290600101906020018083116103d957829003601f168201915b505050505081565b60008033905061040f818585610eb4565b600191505092915050565b600073ff0000000000000000000000000000000000000473ffffffffffffffffffffffffffffffffffffffff1663a2ce9c1f7f00000000000000000000000000000000000000000000000000000000000000006040518263ffffffff1660e01b81526004016104899190611f7c565b60a06040518083038186803b1580156104a157600080fd5b505afa1580156104b5573d6000803e3d6000fd5b505050506040513d601f19601f820116820180604052508101906104d99190611cb3565b6000015167ffffffffffffffff16905090565b6000803390506104fd85828561107f565b610508858585611114565b60019150509392505050565b600073ff0000000000000000000000000000000000000473ffffffffffffffffffffffffffffffffffffffff1663a2ce9c1f7f00000000000000000000000000000000000000000000000000000000000000006040518263ffffffff1660e01b81526004016105839190611f7c565b60a06040518083038186803b15801561059b57600080fd5b505afa1580156105af573d6000803e3d6000fd5b505050506040513d601f19601f820116820180604052508101906105d39190611cb3565b60200151905090565b6000803390506105ec81846115a3565b6001915050919050565b60008061060233611846565b905073ff0000000000000000000000000000000000000473ffffffffffffffffffffffffffffffffffffffff166338a699a4826040518263ffffffff1660e01b81526004016106519190611f7c565b60206040518083038186803b15801561066957600080fd5b505afa15801561067d573d6000803e3d6000fd5b505050506040513d601f19601f820116820180604052508101906106a19190611bfc565b6107705773ff0000000000000000000000000000000000000473ffffffffffffffffffffffffffffffffffffffff1663daa12c5c6106de336118f4565b7f00000000000000000000000000000000000000000000000000000000000000006040518363ffffffff1660e01b815260040161071c929190611f97565b602060405180830381600087803b15801561073657600080fd5b505af115801561074a573d6000803e3d6000fd5b505050506040513d601f19601f8201168201806040525081019061076e9190611c25565b505b600073ff0000000000000000000000000000000000000473ffffffffffffffffffffffffffffffffffffffff168583866040516024016107b293929190611fc0565b6040516020818303038152906040527f78423bcf000000000000000000000000000000000000000000000000000000007bffffffffffffffffffffffffffffffffffffffffffffffffffffffff19166020820180517bffffffffffffffffffffffffffffffffffffffffffffffffffffffff838183161783525050505060405161083c9190611f4a565b600060405180830381855af49150503d8060008114610877576040519150601f19603f3d011682016040523d82523d6000602084013e61087c565b606091505b50509050806108c0576040517f08c379a00000000000000000000000000000000000000000000000000000000081526004016108b790612082565b60405180910390fd5b3373ffffffffffffffffffffffffffffffffffffffff16600073ffffffffffffffffffffffffffffffffffffffff167fddf252ad1be2c89b69c2b068fc378daa952ba7f163c4a11628f55a4df523b3ef8660405161091e91906121bd565b60405180910390a360019250505092915050565b60008061093e83611846565b905073ff0000000000000000000000000000000000000473ffffffffffffffffffffffffffffffffffffffff1663d1de5011826040518263ffffffff1660e01b815260040161098d9190611f7c565b60e06040518083038186803b1580156109a557600080fd5b505afa1580156109b9573d6000803e3d6000fd5b505050506040513d601f19601f820116820180604052508101906109dd9190611c8a565b6040015167ffffffffffffffff16915050919050565b600080339050610a0484828561107f565b610a0e84846115a3565b600191505092915050565b6000803390506000610a2a82611846565b905060008467ffffffffffffffff161115610ac75773ff0000000000000000000000000000000000000473ffffffffffffffffffffffffffffffffffffffff1663a9c158068287876040518463ffffffff1660e01b8152600401610a9093929190611fc0565b600060405180830381600087803b158015610aaa57600080fd5b505af1158015610abe573d6000803e3d6000fd5b50505050610b47565b73ff0000000000000000000000000000000000000473ffffffffffffffffffffffffffffffffffffffff1663b75c7dc6826040518263ffffffff1660e01b8152600401610b149190611f7c565b600060405180830381600087803b158015610b2e57600080fd5b505af1158015610b42573d6000803e3d6000fd5b505050505b600073ffffffffffffffffffffffffffffffffffffffff168273ffffffffffffffffffffffffffffffffffffffff167f8c5be1e5ebec7d5bd14f71427d1e84f3dd0314c0f7b2291e5b200ac8c7c3b92586604051610ba591906121bd565b60405180910390a3848273ffffffffffffffffffffffffffffffffffffffff167ff2d0a01e4c49f3439199c8f8950e366e85c4d1bd845552f6da1009b3bb2c1a7086604051610bf491906121d8565b60405180910390a360019250505092915050565b60018054610c1590612351565b80601f0160208091040260200160405190810160405280929190818152602001828054610c4190612351565b8015610c8e5780601f10610c6357610100808354040283529160200191610c8e565b820191906000526020600020905b815481529060010190602001808311610c7157829003601f168201915b505050505081565b600080339050610ca7818585611114565b600191505092915050565b7f000000000000000000000000000000000000000000000000000000000000000081565b6000803390506000610ce782611846565b905073ff0000000000000000000000000000000000000473ffffffffffffffffffffffffffffffffffffffff166378423bcf8287876040518463ffffffff1660e01b8152600401610d3a93929190611fc0565b600060405180830381600087803b158015610d5457600080fd5b505af1158015610d68573d6000803e3d6000fd5b50505050600073ffffffffffffffffffffffffffffffffffffffff168273ffffffffffffffffffffffffffffffffffffffff167fddf252ad1be2c89b69c2b068fc378daa952ba7f163c4a11628f55a4df523b3ef86604051610dca91906121bd565b60405180910390a3848273ffffffffffffffffffffffffffffffffffffffff167fe583d1a637e8abf51f188046ea719a60e5fa9d1b525c90e85666f5f459b3f14986604051610e1991906121d8565b60405180910390a360019250505092915050565b6000600260008473ffffffffffffffffffffffffffffffffffffffff1673ffffffffffffffffffffffffffffffffffffffff16815260200190815260200160002060008373ffffffffffffffffffffffffffffffffffffffff1673ffffffffffffffffffffffffffffffffffffffff16815260200190815260200160002054905092915050565b600073ffffffffffffffffffffffffffffffffffffffff168373ffffffffffffffffffffffffffffffffffffffff161415610f24576040517f08c379a0000000000000000000000000000000000000000000000000000000008152600401610f1b90612182565b60405180910390fd5b600073ffffffffffffffffffffffffffffffffffffffff168273ffffffffffffffffffffffffffffffffffffffff161415610f94576040517f08c379a0000000000000000000000000000000000000000000000000000000008152600401610f8b906120a2565b60405180910390fd5b80600260008573ffffffffffffffffffffffffffffffffffffffff1673ffffffffffffffffffffffffffffffffffffffff16815260200190815260200160002060008473ffffffffffffffffffffffffffffffffffffffff1673ffffffffffffffffffffffffffffffffffffffff168152602001908152602001600020819055508173ffffffffffffffffffffffffffffffffffffffff168373ffffffffffffffffffffffffffffffffffffffff167f8c5be1e5ebec7d5bd14f71427d1e84f3dd0314c0f7b2291e5b200ac8c7c3b9258360405161107291906121a2565b60405180910390a3505050565b600061108b8484610e2d565b90507fffffffffffffffffffffffffffffffffffffffffffffffffffffffffffffffff811461110e57818110156110f7576040517f08c379a00000000000000000000000000000000000000000000000000000000081526004016110ee906120c2565b60405180910390fd5b61110d848484846111089190612265565b610eb4565b5b50505050565b600073ffffffffffffffffffffffffffffffffffffffff168373ffffffffffffffffffffffffffffffffffffffff161415611184576040517f08c379a000000000000000000000000000000000000000000000000000000000815260040161117b90612142565b60405180910390fd5b600073ffffffffffffffffffffffffffffffffffffffff168273ffffffffffffffffffffffffffffffffffffffff1614156111f4576040517f08c379a00000000000000000000000000000000000000000000000000000000081526004016111eb90612042565b60405180910390fd5b60006111ff84611846565b9050600061120c84611846565b905067ffffffffffffffff801683111561125b576040517f08c379a000000000000000000000000000000000000000000000000000000000815260040161125290612162565b60405180910390fd5b8273ff0000000000000000000000000000000000000473ffffffffffffffffffffffffffffffffffffffff1663d1de5011846040518263ffffffff1660e01b81526004016112a99190611f7c565b60e06040518083038186803b1580156112c157600080fd5b505afa1580156112d5573d6000803e3d6000fd5b505050506040513d601f19601f820116820180604052508101906112f99190611c8a565b6040015167ffffffffffffffff161015611348576040517f08c379a000000000000000000000000000000000000000000000000000000000815260040161133f906120e2565b60405180910390fd5b73ff0000000000000000000000000000000000000473ffffffffffffffffffffffffffffffffffffffff166338a699a4826040518263ffffffff1660e01b81526004016113959190611f7c565b60206040518083038186803b1580156113ad57600080fd5b505afa1580156113c1573d6000803e3d6000fd5b505050506040513d601f19601f820116820180604052508101906113e59190611bfc565b6114b45773ff0000000000000000000000000000000000000473ffffffffffffffffffffffffffffffffffffffff1663daa12c5c611422866118f4565b7f00000000000000000000000000000000000000000000000000000000000000006040518363ffffffff1660e01b8152600401611460929190611f97565b602060405180830381600087803b15801561147a57600080fd5b505af115801561148e573d6000803e3d6000fd5b505050506040513d601f19601f820116820180604052508101906114b29190611c25565b505b73ff0000000000000000000000000000000000000473ffffffffffffffffffffffffffffffffffffffff166378423bcf8383866040518463ffffffff1660e01b815260040161150593929190611fc0565b600060405180830381600087803b15801561151f57600080fd5b505af1158015611533573d6000803e3d6000fd5b505050508373ffffffffffffffffffffffffffffffffffffffff168573ffffffffffffffffffffffffffffffffffffffff167fddf252ad1be2c89b69c2b068fc378daa952ba7f163c4a11628f55a4df523b3ef8560405161159491906121a2565b60405180910390a35050505050565b600073ffffffffffffffffffffffffffffffffffffffff168273ffffffffffffffffffffffffffffffffffffffff161415611613576040517f08c379a000000000000000000000000000000000000000000000000000000000815260040161160a90612122565b60405180910390fd5b67ffffffffffffffff8016811115611660576040517f08c379a000000000000000000000000000000000000000000000000000000000815260040161165790612102565b60405180910390fd5b600061166b83611846565b90508173ff0000000000000000000000000000000000000473ffffffffffffffffffffffffffffffffffffffff1663d1de5011836040518263ffffffff1660e01b81526004016116bb9190611f7c565b60e06040518083038186803b1580156116d357600080fd5b505afa1580156116e7573d6000803e3d6000fd5b505050506040513d601f19601f8201168201806040525081019061170b9190611c8a565b6040015167ffffffffffffffff16101561175a576040517f08c379a000000000000000000000000000000000000000000000000000000000815260040161175190612062565b60405180910390fd5b73ff0000000000000000000000000000000000000473ffffffffffffffffffffffffffffffffffffffff1663e341085582846040518363ffffffff1660e01b81526004016117a9929190611ff7565b600060405180830381600087803b1580156117c357600080fd5b505af11580156117d7573d6000803e3d6000fd5b50505050600073ffffffffffffffffffffffffffffffffffffffff168373ffffffffffffffffffffffffffffffffffffffff167fddf252ad1be2c89b69c2b068fc378daa952ba7f163c4a11628f55a4df523b3ef8460405161183991906121a2565b60405180910390a3505050565b600073ff0000000000000000000000000000000000000473ffffffffffffffffffffffffffffffffffffffff1663eb7da78c611881846118f4565b6040518263ffffffff1660e01b815260040161189d9190611f7c565b60206040518083038186803b1580156118b557600080fd5b505afa1580156118c9573d6000803e3d6000fd5b505050506040513d601f19601f820116820180604052508101906118ed9190611c25565b9050919050565b60008173ffffffffffffffffffffffffffffffffffffffff1660001b9050919050565b6000813590506119268161276b565b92915050565b60008151905061193b81612782565b92915050565b60008135905061195081612799565b92915050565b60008151905061196581612799565b92915050565b60008151905061197a816127b0565b92915050565b600060e0828403121561199257600080fd5b61199c60e061220e565b905060006119ac84828501611956565b60008301525060206119c084828501611956565b60208301525060406119d484828501611ae2565b60408301525060606119e884828501611956565b60608301525060806119fc84828501611ae2565b60808301525060a0611a1084828501611956565b60a08301525060c0611a248482850161196b565b60c08301525092915050565b600060a08284031215611a4257600080fd5b611a4c60a061220e565b90506000611a5c84828501611ae2565b6000830152506020611a7084828501611af7565b6020830152506040611a848482850161192c565b6040830152506060611a9884828501611956565b6060830152506080611aac84828501611956565b60808301525092915050565b600081359050611ac7816127c0565b92915050565b600081359050611adc816127d7565b92915050565b600081519050611af1816127d7565b92915050565b600081519050611b06816127ee565b92915050565b600060208284031215611b1e57600080fd5b6000611b2c84828501611917565b91505092915050565b60008060408385031215611b4857600080fd5b6000611b5685828601611917565b9250506020611b6785828601611917565b9150509250929050565b600080600060608486031215611b8657600080fd5b6000611b9486828701611917565b9350506020611ba586828701611917565b9250506040611bb686828701611ab8565b9150509250925092565b60008060408385031215611bd357600080fd5b6000611be185828601611917565b9250506020611bf285828601611ab8565b9150509250929050565b600060208284031215611c0e57600080fd5b6000611c1c8482850161192c565b91505092915050565b600060208284031215611c3757600080fd5b6000611c4584828501611956565b91505092915050565b60008060408385031215611c6157600080fd5b6000611c6f85828601611941565b9250506020611c8085828601611acd565b9150509250929050565b600060e08284031215611c9c57600080fd5b6000611caa84828501611980565b91505092915050565b600060a08284031215611cc557600080fd5b6000611cd384828501611a30565b91505092915050565b600060208284031215611cee57600080fd5b6000611cfc84828501611ab8565b91505092915050565b611d0e816122ab565b82525050565b611d1d816122b7565b82525050565b6000611d2e82612233565b611d388185612249565b9350611d4881856020860161231e565b80840191505092915050565b6000611d5f8261223e565b611d698185612254565b9350611d7981856020860161231e565b611d8281612441565b840191505092915050565b6000611d9a602383612254565b9150611da582612452565b604082019050919050565b6000611dbd602283612254565b9150611dc8826124a1565b604082019050919050565b6000611de0601383612254565b9150611deb826124f0565b602082019050919050565b6000611e03602283612254565b9150611e0e82612519565b604082019050919050565b6000611e26601d83612254565b9150611e3182612568565b602082019050919050565b6000611e49602683612254565b9150611e5482612591565b604082019050919050565b6000611e6c602583612254565b9150611e77826125e0565b604082019050919050565b6000611e8f602183612254565b9150611e9a8261262f565b604082019050919050565b6000611eb2602583612254565b9150611ebd8261267e565b604082019050919050565b6000611ed5602983612254565b9150611ee0826126cd565b604082019050919050565b6000611ef8602483612254565b9150611f038261271c565b604082019050919050565b611f17816122e1565b82525050565b611f268161230c565b82525050565b611f35816122eb565b82525050565b611f44816122ff565b82525050565b6000611f568284611d23565b915081905092915050565b6000602082019050611f766000830184611d05565b92915050565b6000602082019050611f916000830184611d14565b92915050565b6000604082019050611fac6000830185611d14565b611fb96020830184611d14565b9392505050565b6000606082019050611fd56000830186611d14565b611fe26020830185611d14565b611fef6040830184611f2c565b949350505050565b600060408201905061200c6000830185611d14565b6120196020830184611f2c565b9392505050565b6000602082019050818103600083015261203a8184611d54565b905092915050565b6000602082019050818103600083015261205b81611d8d565b9050919050565b6000602082019050818103600083015261207b81611db0565b9050919050565b6000602082019050818103600083015261209b81611dd3565b9050919050565b600060208201905081810360008301526120bb81611df6565b9050919050565b600060208201905081810360008301526120db81611e19565b9050919050565b600060208201905081810360008301526120fb81611e3c565b9050919050565b6000602082019050818103600083015261211b81611e5f565b9050919050565b6000602082019050818103600083015261213b81611e82565b9050919050565b6000602082019050818103600083015261215b81611ea5565b9050919050565b6000602082019050818103600083015261217b81611ec8565b9050919050565b6000602082019050818103600083015261219b81611eeb565b9050919050565b60006020820190506121b76000830184611f0e565b92915050565b60006020820190506121d26000830184611f1d565b92915050565b60006020820190506121ed6000830184611f2c565b92915050565b60006020820190506122086000830184611f3b565b92915050565b6000612218612229565b90506122248282612383565b919050565b6000604051905090565b600081519050919050565b600081519050919050565b600081905092915050565b600082825260208201905092915050565b6000612270826122e1565b915061227b836122e1565b92508282101561228e5761228d6123b4565b5b828203905092915050565b60006122a4826122c1565b9050919050565b60008115159050919050565b6000819050919050565b600073ffffffffffffffffffffffffffffffffffffffff82169050919050565b6000819050919050565b600067ffffffffffffffff82169050919050565b600060ff82169050919050565b6000612317826122eb565b9050919050565b60005b8381101561233c578082015181840152602081019050612321565b8381111561234b576000848401525b50505050565b6000600282049050600182168061236957607f821691505b6020821081141561237d5761237c6123e3565b5b50919050565b61238c82612441565b810181811067ffffffffffffffff821117156123ab576123aa612412565b5b80604052505050565b7f4e487b7100000000000000000000000000000000000000000000000000000000600052601160045260246000fd5b7f4e487b7100000000000000000000000000000000000000000000000000000000600052602260045260246000fd5b7f4e487b7100000000000000000000000000000000000000000000000000000000600052604160045260246000fd5b6000601f19601f8301169050919050565b7f45524332303a207472616e7366657220746f20746865207a65726f206164647260008201527f6573730000000000000000000000000000000000000000000000000000000000602082015250565b7f45524332303a206275726e20616d6f756e7420657863656564732062616c616e60008201527f6365000000000000000000000000000000000000000000000000000000000000602082015250565b7f45524332303a20636c61696d206661696c656400000000000000000000000000600082015250565b7f45524332303a20617070726f766520746f20746865207a65726f20616464726560008201527f7373000000000000000000000000000000000000000000000000000000000000602082015250565b7f45524332303a20696e73756666696369656e7420616c6c6f77616e6365000000600082015250565b7f45524332303a207472616e7366657220616d6f756e742065786365656473206260008201527f616c616e63650000000000000000000000000000000000000000000000000000602082015250565b7f45524332303a206275726e20616d6f756e7420657863656564732075696e743660008201527f34206d6178000000000000000000000000000000000000000000000000000000602082015250565b7f45524332303a206275726e2066726f6d20746865207a65726f2061646472657360008201527f7300000000000000000000000000000000000000000000000000000000000000602082015250565b7f45524332303a207472616e736665722066726f6d20746865207a65726f20616460008201527f6472657373000000000000000000000000000000000000000000000000000000602082015250565b7f45524332303a207472616e7366657220616d6f756e742065786365656473207560008201527f696e743634206d61780000000000000000000000000000000000000000000000602082015250565b7f45524332303a20617070726f76652066726f6d20746865207a65726f2061646460008201527f7265737300000000000000000000000000000000000000000000000000000000602082015250565b61277481612299565b811461277f57600080fd5b50565b61278b816122ab565b811461279657600080fd5b50565b6127a2816122b7565b81146127ad57600080fd5b50565b600381106127bd57600080fd5b50565b6127c9816122e1565b81146127d457600080fd5b50565b6127e0816122eb565b81146127eb57600080fd5b50565b6127f7816122ff565b811461280257600080fd5b5056fea2646970667358221220a035192573b702d643eab8d0913b78be94e3a456135263b86f0a88521f8da39d64736f6c63430008040033",
  "linkReferences": {},
  "deployedLinkReferences": {}
}